{
  "_format": "hh-sol-artifact-1",
  "contractName": "Contract",
  "sourceName": "contracts/Contract.sol",
  "abi": [
    {
      "inputs": [
        {
          "internalType": "contract IWorldID",
          "name": "_worldId",
          "type": "address"
        },
        {
          "internalType": "string",
          "name": "_actionId",
          "type": "string"
        }
      ],
      "stateMutability": "nonpayable",
      "type": "constructor"
    },
    {
      "inputs": [],
      "name": "InvalidNullifier",
      "type": "error"
    },
    {
      "anonymous": false,
      "inputs": [
        {
          "indexed": true,
          "internalType": "address",
          "name": "owner",
          "type": "address"
        },
        {
          "indexed": true,
          "internalType": "address",
          "name": "approved",
          "type": "address"
        },
        {
          "indexed": true,
          "internalType": "uint256",
          "name": "tokenId",
          "type": "uint256"
        }
      ],
      "name": "Approval",
      "type": "event"
    },
    {
      "anonymous": false,
      "inputs": [
        {
          "indexed": true,
          "internalType": "address",
          "name": "owner",
          "type": "address"
        },
        {
          "indexed": true,
          "internalType": "address",
          "name": "operator",
          "type": "address"
        },
        {
          "indexed": false,
          "internalType": "bool",
          "name": "approved",
          "type": "bool"
        }
      ],
      "name": "ApprovalForAll",
      "type": "event"
    },
    {
      "anonymous": false,
      "inputs": [
        {
          "indexed": true,
          "internalType": "address",
          "name": "previousOwner",
          "type": "address"
        },
        {
          "indexed": true,
          "internalType": "address",
          "name": "newOwner",
          "type": "address"
        }
      ],
      "name": "OwnershipTransferred",
      "type": "event"
    },
    {
      "anonymous": false,
      "inputs": [
        {
          "indexed": true,
          "internalType": "address",
          "name": "from",
          "type": "address"
        },
        {
          "indexed": true,
          "internalType": "address",
          "name": "to",
          "type": "address"
        },
        {
          "indexed": true,
          "internalType": "uint256",
          "name": "tokenId",
          "type": "uint256"
        }
      ],
      "name": "Transfer",
      "type": "event"
    },
    {
      "inputs": [
        {
          "internalType": "address",
          "name": "to",
          "type": "address"
        },
        {
          "internalType": "uint256",
          "name": "tokenId",
          "type": "uint256"
        }
      ],
      "name": "approve",
      "outputs": [],
      "stateMutability": "nonpayable",
      "type": "function"
    },
    {
      "inputs": [
        {
          "internalType": "address",
          "name": "owner",
          "type": "address"
        }
      ],
      "name": "balanceOf",
      "outputs": [
        {
          "internalType": "uint256",
          "name": "",
          "type": "uint256"
        }
      ],
      "stateMutability": "view",
      "type": "function"
    },
    {
      "inputs": [
        {
          "internalType": "uint256",
          "name": "tokenId",
          "type": "uint256"
        }
      ],
      "name": "getApproved",
      "outputs": [
        {
          "internalType": "address",
          "name": "",
          "type": "address"
        }
      ],
      "stateMutability": "view",
      "type": "function"
    },
    {
      "inputs": [
        {
          "internalType": "address",
          "name": "owner",
          "type": "address"
        },
        {
          "internalType": "address",
          "name": "operator",
          "type": "address"
        }
      ],
      "name": "isApprovedForAll",
      "outputs": [
        {
          "internalType": "bool",
          "name": "",
          "type": "bool"
        }
      ],
      "stateMutability": "view",
      "type": "function"
    },
    {
      "inputs": [],
      "name": "name",
      "outputs": [
        {
          "internalType": "string",
          "name": "",
          "type": "string"
        }
      ],
      "stateMutability": "view",
      "type": "function"
    },
    {
      "inputs": [],
      "name": "owner",
      "outputs": [
        {
          "internalType": "address",
          "name": "",
          "type": "address"
        }
      ],
      "stateMutability": "view",
      "type": "function"
    },
    {
      "inputs": [
        {
          "internalType": "uint256",
          "name": "tokenId",
          "type": "uint256"
        }
      ],
      "name": "ownerOf",
      "outputs": [
        {
          "internalType": "address",
          "name": "",
          "type": "address"
        }
      ],
      "stateMutability": "view",
      "type": "function"
    },
    {
      "inputs": [],
      "name": "renounceOwnership",
      "outputs": [],
      "stateMutability": "nonpayable",
      "type": "function"
    },
    {
      "inputs": [
        {
          "internalType": "address",
          "name": "from",
          "type": "address"
        },
        {
          "internalType": "address",
          "name": "to",
          "type": "address"
        },
        {
          "internalType": "uint256",
          "name": "tokenId",
          "type": "uint256"
        }
      ],
      "name": "safeTransferFrom",
      "outputs": [],
      "stateMutability": "nonpayable",
      "type": "function"
    },
    {
      "inputs": [
        {
          "internalType": "address",
          "name": "from",
          "type": "address"
        },
        {
          "internalType": "address",
          "name": "to",
          "type": "address"
        },
        {
          "internalType": "uint256",
          "name": "tokenId",
          "type": "uint256"
        },
        {
          "internalType": "bytes",
          "name": "data",
          "type": "bytes"
        }
      ],
      "name": "safeTransferFrom",
      "outputs": [],
      "stateMutability": "nonpayable",
      "type": "function"
    },
    {
      "inputs": [
        {
          "internalType": "address",
          "name": "operator",
          "type": "address"
        },
        {
          "internalType": "bool",
          "name": "approved",
          "type": "bool"
        }
      ],
      "name": "setApprovalForAll",
      "outputs": [],
      "stateMutability": "nonpayable",
      "type": "function"
    },
    {
      "inputs": [
        {
          "internalType": "bytes4",
          "name": "interfaceId",
          "type": "bytes4"
        }
      ],
      "name": "supportsInterface",
      "outputs": [
        {
          "internalType": "bool",
          "name": "",
          "type": "bool"
        }
      ],
      "stateMutability": "view",
      "type": "function"
    },
    {
      "inputs": [],
      "name": "symbol",
      "outputs": [
        {
          "internalType": "string",
          "name": "",
          "type": "string"
        }
      ],
      "stateMutability": "view",
      "type": "function"
    },
    {
      "inputs": [
        {
          "internalType": "uint256",
          "name": "tokenId",
          "type": "uint256"
        }
      ],
      "name": "tokenURI",
      "outputs": [
        {
          "internalType": "string",
          "name": "",
          "type": "string"
        }
      ],
      "stateMutability": "view",
      "type": "function"
    },
    {
      "inputs": [
        {
          "internalType": "address",
          "name": "from",
          "type": "address"
        },
        {
          "internalType": "address",
          "name": "to",
          "type": "address"
        },
        {
          "internalType": "uint256",
          "name": "tokenId",
          "type": "uint256"
        }
      ],
      "name": "transferFrom",
      "outputs": [],
      "stateMutability": "nonpayable",
      "type": "function"
    },
    {
      "inputs": [
        {
          "internalType": "address",
          "name": "newOwner",
          "type": "address"
        }
      ],
      "name": "transferOwnership",
      "outputs": [],
      "stateMutability": "nonpayable",
      "type": "function"
    },
    {
      "inputs": [
        {
          "internalType": "address",
          "name": "recipient",
          "type": "address"
        },
        {
          "internalType": "uint256",
          "name": "root",
          "type": "uint256"
        },
        {
          "internalType": "uint256",
          "name": "nullifierHash",
          "type": "uint256"
        },
        {
          "internalType": "uint256[8]",
          "name": "proof",
          "type": "uint256[8]"
        }
      ],
      "name": "verifyAndMintNFT",
      "outputs": [
        {
          "internalType": "uint256",
          "name": "",
          "type": "uint256"
        }
      ],
      "stateMutability": "nonpayable",
      "type": "function"
    }
  ],
  "bytecode": "0x60e0604052600160c0908152503480156200001957600080fd5b50604051620035c1380380620035c183398181016040528101906200003f919062000546565b6040518060400160405280600d81526020017f486f72736579546573744e4654000000000000000000000000000000000000008152506040518060400160405280600381526020017f4e465400000000000000000000000000000000000000000000000000000000008152508160009080519060200190620000c392919062000280565b508060019080519060200190620000dc92919062000280565b505050620000ff620000f36200017960201b60201c565b6200018160201b60201c565b8173ffffffffffffffffffffffffffffffffffffffff1660808173ffffffffffffffffffffffffffffffffffffffff16815250506200016a816040516020016200014a9190620005f9565b6040516020818303038152906040526200024760201b62000d661760201c565b60a081815250505050620006dc565b600033905090565b6000600760009054906101000a900473ffffffffffffffffffffffffffffffffffffffff16905081600760006101000a81548173ffffffffffffffffffffffffffffffffffffffff021916908373ffffffffffffffffffffffffffffffffffffffff1602179055508173ffffffffffffffffffffffffffffffffffffffff168173ffffffffffffffffffffffffffffffffffffffff167f8be0079c531659141344cd1fd0a4f28419497f9722a3daafe3b4186f6b6457e060405160405180910390a35050565b60006008826040516020016200025e91906200065f565b6040516020818303038152906040528051906020012060001c901c9050919050565b8280546200028e90620006a7565b90600052602060002090601f016020900481019282620002b25760008555620002fe565b82601f10620002cd57805160ff1916838001178555620002fe565b82800160010185558215620002fe579182015b82811115620002fd578251825591602001919060010190620002e0565b5b5090506200030d919062000311565b5090565b5b808211156200032c57600081600090555060010162000312565b5090565b6000604051905090565b600080fd5b600080fd5b600073ffffffffffffffffffffffffffffffffffffffff82169050919050565b6000620003718262000344565b9050919050565b6000620003858262000364565b9050919050565b620003978162000378565b8114620003a357600080fd5b50565b600081519050620003b7816200038c565b92915050565b600080fd5b600080fd5b6000601f19601f8301169050919050565b7f4e487b7100000000000000000000000000000000000000000000000000000000600052604160045260246000fd5b6200041282620003c7565b810181811067ffffffffffffffff82111715620004345762000433620003d8565b5b80604052505050565b60006200044962000330565b905062000457828262000407565b919050565b600067ffffffffffffffff8211156200047a5762000479620003d8565b5b6200048582620003c7565b9050602081019050919050565b60005b83811015620004b257808201518184015260208101905062000495565b83811115620004c2576000848401525b50505050565b6000620004df620004d9846200045c565b6200043d565b905082815260208101848484011115620004fe57620004fd620003c2565b5b6200050b84828562000492565b509392505050565b600082601f8301126200052b576200052a620003bd565b5b81516200053d848260208601620004c8565b91505092915050565b6000806040838503121562000560576200055f6200033a565b5b60006200057085828601620003a6565b925050602083015167ffffffffffffffff8111156200059457620005936200033f565b5b620005a28582860162000513565b9150509250929050565b600081519050919050565b600081905092915050565b6000620005cf82620005ac565b620005db8185620005b7565b9350620005ed81856020860162000492565b80840191505092915050565b6000620006078284620005c2565b915081905092915050565b600081519050919050565b600081905092915050565b6000620006358262000612565b6200064181856200061d565b93506200065381856020860162000492565b80840191505092915050565b60006200066d828462000628565b915081905092915050565b7f4e487b7100000000000000000000000000000000000000000000000000000000600052602260045260246000fd5b60006002820490506001821680620006c057607f821691505b602082108103620006d657620006d562000678565b5b50919050565b60805160a05160c051612eb56200070c60003960006108d20152600061091c015260006108950152612eb56000f3fe608060405234801561001057600080fd5b506004361061010b5760003560e01c8063715018a6116100a2578063a22cb46511610071578063a22cb465146102b8578063b88d4fde146102d4578063c87b56dd146102f0578063e985e9c514610320578063f2fde38b146103505761010b565b8063715018a614610242578063809f4df21461024c5780638da5cb5b1461027c57806395d89b411461029a5761010b565b806323b872dd116100de57806323b872dd146101aa57806342842e0e146101c65780636352211e146101e257806370a08231146102125761010b565b806301ffc9a71461011057806306fdde0314610140578063081812fc1461015e578063095ea7b31461018e575b600080fd5b61012a60048036038101906101259190611c99565b61036c565b6040516101379190611ce1565b60405180910390f35b61014861044e565b6040516101559190611d95565b60405180910390f35b61017860048036038101906101739190611ded565b6104e0565b6040516101859190611e5b565b60405180910390f35b6101a860048036038101906101a39190611ea2565b610526565b005b6101c460048036038101906101bf9190611ee2565b61063d565b005b6101e060048036038101906101db9190611ee2565b61069d565b005b6101fc60048036038101906101f79190611ded565b6106bd565b6040516102099190611e5b565b60405180910390f35b61022c60048036038101906102279190611f35565b61076e565b6040516102399190611f71565b60405180910390f35b61024a610825565b005b61026660048036038101906102619190611fb3565b610839565b6040516102739190611f71565b60405180910390f35b610284610a09565b6040516102919190611e5b565b60405180910390f35b6102a2610a33565b6040516102af9190611d95565b60405180910390f35b6102d260048036038101906102cd9190612047565b610ac5565b005b6102ee60048036038101906102e991906121bc565b610adb565b005b61030a60048036038101906103059190611ded565b610b3d565b6040516103179190611d95565b60405180910390f35b61033a6004803603810190610335919061223f565b610c4f565b6040516103479190611ce1565b60405180910390f35b61036a60048036038101906103659190611f35565b610ce3565b005b60007f80ac58cd000000000000000000000000000000000000000000000000000000007bffffffffffffffffffffffffffffffffffffffffffffffffffffffff1916827bffffffffffffffffffffffffffffffffffffffffffffffffffffffff1916148061043757507f5b5e139f000000000000000000000000000000000000000000000000000000007bffffffffffffffffffffffffffffffffffffffffffffffffffffffff1916827bffffffffffffffffffffffffffffffffffffffffffffffffffffffff1916145b80610447575061044682610d9d565b5b9050919050565b60606000805461045d906122ae565b80601f0160208091040260200160405190810160405280929190818152602001828054610489906122ae565b80156104d65780601f106104ab576101008083540402835291602001916104d6565b820191906000526020600020905b8154815290600101906020018083116104b957829003601f168201915b5050505050905090565b60006104eb82610e07565b6004600083815260200190815260200160002060009054906101000a900473ffffffffffffffffffffffffffffffffffffffff169050919050565b6000610531826106bd565b90508073ffffffffffffffffffffffffffffffffffffffff168373ffffffffffffffffffffffffffffffffffffffff16036105a1576040517f08c379a000000000000000000000000000000000000000000000000000000000815260040161059890612351565b60405180910390fd5b8073ffffffffffffffffffffffffffffffffffffffff166105c0610e52565b73ffffffffffffffffffffffffffffffffffffffff1614806105ef57506105ee816105e9610e52565b610c4f565b5b61062e576040517f08c379a0000000000000000000000000000000000000000000000000000000008152600401610625906123e3565b60405180910390fd5b6106388383610e5a565b505050565b61064e610648610e52565b82610f13565b61068d576040517f08c379a000000000000000000000000000000000000000000000000000000000815260040161068490612475565b60405180910390fd5b610698838383610fa8565b505050565b6106b883838360405180602001604052806000815250610adb565b505050565b6000806002600084815260200190815260200160002060009054906101000a900473ffffffffffffffffffffffffffffffffffffffff169050600073ffffffffffffffffffffffffffffffffffffffff168173ffffffffffffffffffffffffffffffffffffffff1603610765576040517f08c379a000000000000000000000000000000000000000000000000000000000815260040161075c906124e1565b60405180910390fd5b80915050919050565b60008073ffffffffffffffffffffffffffffffffffffffff168273ffffffffffffffffffffffffffffffffffffffff16036107de576040517f08c379a00000000000000000000000000000000000000000000000000000000081526004016107d590612573565b60405180910390fd5b600360008373ffffffffffffffffffffffffffffffffffffffff1673ffffffffffffffffffffffffffffffffffffffff168152602001908152602001600020549050919050565b61082d61120e565b610837600061128c565b565b60006008600084815260200190815260200160002060009054906101000a900460ff1615610893576040517f5d904cb200000000000000000000000000000000000000000000000000000000815260040160405180910390fd5b7f000000000000000000000000000000000000000000000000000000000000000073ffffffffffffffffffffffffffffffffffffffff16633bc778e3857f00000000000000000000000000000000000000000000000000000000000000006109198960405160200161090591906125db565b604051602081830303815290604052610d66565b877f0000000000000000000000000000000000000000000000000000000000000000886040518763ffffffff1660e01b815260040161095d96959493929190612607565b60006040518083038186803b15801561097557600080fd5b505afa158015610989573d6000803e3d6000fd5b5050505060016008600085815260200190815260200160002060006101000a81548160ff0219169083151502179055506109c36009611352565b60006109cf6009611368565b90506109db8682611376565b6109fd81604051806060016040528060358152602001612e4b6035913961154f565b80915050949350505050565b6000600760009054906101000a900473ffffffffffffffffffffffffffffffffffffffff16905090565b606060018054610a42906122ae565b80601f0160208091040260200160405190810160405280929190818152602001828054610a6e906122ae565b8015610abb5780601f10610a9057610100808354040283529160200191610abb565b820191906000526020600020905b815481529060010190602001808311610a9e57829003601f168201915b5050505050905090565b610ad7610ad0610e52565b83836115c3565b5050565b610aec610ae6610e52565b83610f13565b610b2b576040517f08c379a0000000000000000000000000000000000000000000000000000000008152600401610b2290612475565b60405180910390fd5b610b378484848461172f565b50505050565b6060610b4882610e07565b6000600660008481526020019081526020016000208054610b68906122ae565b80601f0160208091040260200160405190810160405280929190818152602001828054610b94906122ae565b8015610be15780601f10610bb657610100808354040283529160200191610be1565b820191906000526020600020905b815481529060010190602001808311610bc457829003601f168201915b505050505090506000610bf261178b565b90506000815103610c07578192505050610c4a565b600082511115610c3c578082604051602001610c249291906126a5565b60405160208183030381529060405292505050610c4a565b610c45846117a2565b925050505b919050565b6000600560008473ffffffffffffffffffffffffffffffffffffffff1673ffffffffffffffffffffffffffffffffffffffff16815260200190815260200160002060008373ffffffffffffffffffffffffffffffffffffffff1673ffffffffffffffffffffffffffffffffffffffff16815260200190815260200160002060009054906101000a900460ff16905092915050565b610ceb61120e565b600073ffffffffffffffffffffffffffffffffffffffff168173ffffffffffffffffffffffffffffffffffffffff1603610d5a576040517f08c379a0000000000000000000000000000000000000000000000000000000008152600401610d519061273b565b60405180910390fd5b610d638161128c565b50565b6000600882604051602001610d7b91906127a2565b6040516020818303038152906040528051906020012060001c901c9050919050565b60007f01ffc9a7000000000000000000000000000000000000000000000000000000007bffffffffffffffffffffffffffffffffffffffffffffffffffffffff1916827bffffffffffffffffffffffffffffffffffffffffffffffffffffffff1916149050919050565b610e108161180a565b610e4f576040517f08c379a0000000000000000000000000000000000000000000000000000000008152600401610e46906124e1565b60405180910390fd5b50565b600033905090565b816004600083815260200190815260200160002060006101000a81548173ffffffffffffffffffffffffffffffffffffffff021916908373ffffffffffffffffffffffffffffffffffffffff160217905550808273ffffffffffffffffffffffffffffffffffffffff16610ecd836106bd565b73ffffffffffffffffffffffffffffffffffffffff167f8c5be1e5ebec7d5bd14f71427d1e84f3dd0314c0f7b2291e5b200ac8c7c3b92560405160405180910390a45050565b600080610f1f836106bd565b90508073ffffffffffffffffffffffffffffffffffffffff168473ffffffffffffffffffffffffffffffffffffffff161480610f615750610f608185610c4f565b5b80610f9f57508373ffffffffffffffffffffffffffffffffffffffff16610f87846104e0565b73ffffffffffffffffffffffffffffffffffffffff16145b91505092915050565b8273ffffffffffffffffffffffffffffffffffffffff16610fc8826106bd565b73ffffffffffffffffffffffffffffffffffffffff161461101e576040517f08c379a00000000000000000000000000000000000000000000000000000000081526004016110159061282b565b60405180910390fd5b600073ffffffffffffffffffffffffffffffffffffffff168273ffffffffffffffffffffffffffffffffffffffff160361108d576040517f08c379a0000000000000000000000000000000000000000000000000000000008152600401611084906128bd565b60405180910390fd5b611098838383611876565b6110a3600082610e5a565b6001600360008573ffffffffffffffffffffffffffffffffffffffff1673ffffffffffffffffffffffffffffffffffffffff16815260200190815260200160002060008282546110f3919061290c565b925050819055506001600360008473ffffffffffffffffffffffffffffffffffffffff1673ffffffffffffffffffffffffffffffffffffffff168152602001908152602001600020600082825461114a9190612940565b92505081905550816002600083815260200190815260200160002060006101000a81548173ffffffffffffffffffffffffffffffffffffffff021916908373ffffffffffffffffffffffffffffffffffffffff160217905550808273ffffffffffffffffffffffffffffffffffffffff168473ffffffffffffffffffffffffffffffffffffffff167fddf252ad1be2c89b69c2b068fc378daa952ba7f163c4a11628f55a4df523b3ef60405160405180910390a461120983838361187b565b505050565b611216610e52565b73ffffffffffffffffffffffffffffffffffffffff16611234610a09565b73ffffffffffffffffffffffffffffffffffffffff161461128a576040517f08c379a0000000000000000000000000000000000000000000000000000000008152600401611281906129e2565b60405180910390fd5b565b6000600760009054906101000a900473ffffffffffffffffffffffffffffffffffffffff16905081600760006101000a81548173ffffffffffffffffffffffffffffffffffffffff021916908373ffffffffffffffffffffffffffffffffffffffff1602179055508173ffffffffffffffffffffffffffffffffffffffff168173ffffffffffffffffffffffffffffffffffffffff167f8be0079c531659141344cd1fd0a4f28419497f9722a3daafe3b4186f6b6457e060405160405180910390a35050565b6001816000016000828254019250508190555050565b600081600001549050919050565b600073ffffffffffffffffffffffffffffffffffffffff168273ffffffffffffffffffffffffffffffffffffffff16036113e5576040517f08c379a00000000000000000000000000000000000000000000000000000000081526004016113dc90612a4e565b60405180910390fd5b6113ee8161180a565b1561142e576040517f08c379a000000000000000000000000000000000000000000000000000000000815260040161142590612aba565b60405180910390fd5b61143a60008383611876565b6001600360008473ffffffffffffffffffffffffffffffffffffffff1673ffffffffffffffffffffffffffffffffffffffff168152602001908152602001600020600082825461148a9190612940565b92505081905550816002600083815260200190815260200160002060006101000a81548173ffffffffffffffffffffffffffffffffffffffff021916908373ffffffffffffffffffffffffffffffffffffffff160217905550808273ffffffffffffffffffffffffffffffffffffffff16600073ffffffffffffffffffffffffffffffffffffffff167fddf252ad1be2c89b69c2b068fc378daa952ba7f163c4a11628f55a4df523b3ef60405160405180910390a461154b6000838361187b565b5050565b6115588261180a565b611597576040517f08c379a000000000000000000000000000000000000000000000000000000000815260040161158e90612b4c565b60405180910390fd5b806006600084815260200190815260200160002090805190602001906115be929190611b8a565b505050565b8173ffffffffffffffffffffffffffffffffffffffff168373ffffffffffffffffffffffffffffffffffffffff1603611631576040517f08c379a000000000000000000000000000000000000000000000000000000000815260040161162890612bb8565b60405180910390fd5b80600560008573ffffffffffffffffffffffffffffffffffffffff1673ffffffffffffffffffffffffffffffffffffffff16815260200190815260200160002060008473ffffffffffffffffffffffffffffffffffffffff1673ffffffffffffffffffffffffffffffffffffffff16815260200190815260200160002060006101000a81548160ff0219169083151502179055508173ffffffffffffffffffffffffffffffffffffffff168373ffffffffffffffffffffffffffffffffffffffff167f17307eab39ab6107e8899845ad3d59bd9653f200f220920489ca2b5937696c31836040516117229190611ce1565b60405180910390a3505050565b61173a848484610fa8565b61174684848484611880565b611785576040517f08c379a000000000000000000000000000000000000000000000000000000000815260040161177c90612c4a565b60405180910390fd5b50505050565b606060405180602001604052806000815250905090565b60606117ad82610e07565b60006117b761178b565b905060008151116117d75760405180602001604052806000815250611802565b806117e184611a07565b6040516020016117f29291906126a5565b6040516020818303038152906040525b915050919050565b60008073ffffffffffffffffffffffffffffffffffffffff166002600084815260200190815260200160002060009054906101000a900473ffffffffffffffffffffffffffffffffffffffff1673ffffffffffffffffffffffffffffffffffffffff1614159050919050565b505050565b505050565b60006118a18473ffffffffffffffffffffffffffffffffffffffff16611b67565b156119fa578373ffffffffffffffffffffffffffffffffffffffff1663150b7a026118ca610e52565b8786866040518563ffffffff1660e01b81526004016118ec9493929190612cb4565b6020604051808303816000875af192505050801561192857506040513d601f19601f820116820180604052508101906119259190612d15565b60015b6119aa573d8060008114611958576040519150601f19603f3d011682016040523d82523d6000602084013e61195d565b606091505b5060008151036119a2576040517f08c379a000000000000000000000000000000000000000000000000000000000815260040161199990612c4a565b60405180910390fd5b805181602001fd5b63150b7a0260e01b7bffffffffffffffffffffffffffffffffffffffffffffffffffffffff1916817bffffffffffffffffffffffffffffffffffffffffffffffffffffffff1916149150506119ff565b600190505b949350505050565b606060008203611a4e576040518060400160405280600181526020017f30000000000000000000000000000000000000000000000000000000000000008152509050611b62565b600082905060005b60008214611a80578080611a6990612d42565b915050600a82611a799190612db9565b9150611a56565b60008167ffffffffffffffff811115611a9c57611a9b612091565b5b6040519080825280601f01601f191660200182016040528015611ace5781602001600182028036833780820191505090505b5090505b60008514611b5b57600182611ae7919061290c565b9150600a85611af69190612dea565b6030611b029190612940565b60f81b818381518110611b1857611b17612e1b565b5b60200101907effffffffffffffffffffffffffffffffffffffffffffffffffffffffffffff1916908160001a905350600a85611b549190612db9565b9450611ad2565b8093505050505b919050565b6000808273ffffffffffffffffffffffffffffffffffffffff163b119050919050565b828054611b96906122ae565b90600052602060002090601f016020900481019282611bb85760008555611bff565b82601f10611bd157805160ff1916838001178555611bff565b82800160010185558215611bff579182015b82811115611bfe578251825591602001919060010190611be3565b5b509050611c0c9190611c10565b5090565b5b80821115611c29576000816000905550600101611c11565b5090565b6000604051905090565b600080fd5b600080fd5b60007fffffffff0000000000000000000000000000000000000000000000000000000082169050919050565b611c7681611c41565b8114611c8157600080fd5b50565b600081359050611c9381611c6d565b92915050565b600060208284031215611caf57611cae611c37565b5b6000611cbd84828501611c84565b91505092915050565b60008115159050919050565b611cdb81611cc6565b82525050565b6000602082019050611cf66000830184611cd2565b92915050565b600081519050919050565b600082825260208201905092915050565b60005b83811015611d36578082015181840152602081019050611d1b565b83811115611d45576000848401525b50505050565b6000601f19601f8301169050919050565b6000611d6782611cfc565b611d718185611d07565b9350611d81818560208601611d18565b611d8a81611d4b565b840191505092915050565b60006020820190508181036000830152611daf8184611d5c565b905092915050565b6000819050919050565b611dca81611db7565b8114611dd557600080fd5b50565b600081359050611de781611dc1565b92915050565b600060208284031215611e0357611e02611c37565b5b6000611e1184828501611dd8565b91505092915050565b600073ffffffffffffffffffffffffffffffffffffffff82169050919050565b6000611e4582611e1a565b9050919050565b611e5581611e3a565b82525050565b6000602082019050611e706000830184611e4c565b92915050565b611e7f81611e3a565b8114611e8a57600080fd5b50565b600081359050611e9c81611e76565b92915050565b60008060408385031215611eb957611eb8611c37565b5b6000611ec785828601611e8d565b9250506020611ed885828601611dd8565b9150509250929050565b600080600060608486031215611efb57611efa611c37565b5b6000611f0986828701611e8d565b9350506020611f1a86828701611e8d565b9250506040611f2b86828701611dd8565b9150509250925092565b600060208284031215611f4b57611f4a611c37565b5b6000611f5984828501611e8d565b91505092915050565b611f6b81611db7565b82525050565b6000602082019050611f866000830184611f62565b92915050565b600080fd5b600081905082602060080282011115611fad57611fac611f8c565b5b92915050565b6000806000806101608587031215611fce57611fcd611c37565b5b6000611fdc87828801611e8d565b9450506020611fed87828801611dd8565b9350506040611ffe87828801611dd8565b925050606061200f87828801611f91565b91505092959194509250565b61202481611cc6565b811461202f57600080fd5b50565b6000813590506120418161201b565b92915050565b6000806040838503121561205e5761205d611c37565b5b600061206c85828601611e8d565b925050602061207d85828601612032565b9150509250929050565b600080fd5b600080fd5b7f4e487b7100000000000000000000000000000000000000000000000000000000600052604160045260246000fd5b6120c982611d4b565b810181811067ffffffffffffffff821117156120e8576120e7612091565b5b80604052505050565b60006120fb611c2d565b905061210782826120c0565b919050565b600067ffffffffffffffff82111561212757612126612091565b5b61213082611d4b565b9050602081019050919050565b82818337600083830152505050565b600061215f61215a8461210c565b6120f1565b90508281526020810184848401111561217b5761217a61208c565b5b61218684828561213d565b509392505050565b600082601f8301126121a3576121a2612087565b5b81356121b384826020860161214c565b91505092915050565b600080600080608085870312156121d6576121d5611c37565b5b60006121e487828801611e8d565b94505060206121f587828801611e8d565b935050604061220687828801611dd8565b925050606085013567ffffffffffffffff81111561222757612226611c3c565b5b6122338782880161218e565b91505092959194509250565b6000806040838503121561225657612255611c37565b5b600061226485828601611e8d565b925050602061227585828601611e8d565b9150509250929050565b7f4e487b7100000000000000000000000000000000000000000000000000000000600052602260045260246000fd5b600060028204905060018216806122c657607f821691505b6020821081036122d9576122d861227f565b5b50919050565b7f4552433732313a20617070726f76616c20746f2063757272656e74206f776e6560008201527f7200000000000000000000000000000000000000000000000000000000000000602082015250565b600061233b602183611d07565b9150612346826122df565b604082019050919050565b6000602082019050818103600083015261236a8161232e565b9050919050565b7f4552433732313a20617070726f76652063616c6c6572206973206e6f7420746f60008201527f6b656e206f776e6572206e6f7220617070726f76656420666f7220616c6c0000602082015250565b60006123cd603e83611d07565b91506123d882612371565b604082019050919050565b600060208201905081810360008301526123fc816123c0565b9050919050565b7f4552433732313a2063616c6c6572206973206e6f7420746f6b656e206f776e6560008201527f72206e6f7220617070726f766564000000000000000000000000000000000000602082015250565b600061245f602e83611d07565b915061246a82612403565b604082019050919050565b6000602082019050818103600083015261248e81612452565b9050919050565b7f4552433732313a20696e76616c696420746f6b656e2049440000000000000000600082015250565b60006124cb601883611d07565b91506124d682612495565b602082019050919050565b600060208201905081810360008301526124fa816124be565b9050919050565b7f4552433732313a2061646472657373207a65726f206973206e6f74206120766160008201527f6c6964206f776e65720000000000000000000000000000000000000000000000602082015250565b600061255d602983611d07565b915061256882612501565b604082019050919050565b6000602082019050818103600083015261258c81612550565b9050919050565b60008160601b9050919050565b60006125ab82612593565b9050919050565b60006125bd826125a0565b9050919050565b6125d56125d082611e3a565b6125b2565b82525050565b60006125e782846125c4565b60148201915081905092915050565b612603610100838361213d565b5050565b60006101a08201905061261d6000830189611f62565b61262a6020830188611f62565b6126376040830187611f62565b6126446060830186611f62565b6126516080830185611f62565b61265e60a08301846125f6565b979650505050505050565b600081905092915050565b600061267f82611cfc565b6126898185612669565b9350612699818560208601611d18565b80840191505092915050565b60006126b18285612674565b91506126bd8284612674565b91508190509392505050565b7f4f776e61626c653a206e6577206f776e657220697320746865207a65726f206160008201527f6464726573730000000000000000000000000000000000000000000000000000602082015250565b6000612725602683611d07565b9150612730826126c9565b604082019050919050565b6000602082019050818103600083015261275481612718565b9050919050565b600081519050919050565b600081905092915050565b600061277c8261275b565b6127868185612766565b9350612796818560208601611d18565b80840191505092915050565b60006127ae8284612771565b915081905092915050565b7f4552433732313a207472616e736665722066726f6d20696e636f72726563742060008201527f6f776e6572000000000000000000000000000000000000000000000000000000602082015250565b6000612815602583611d07565b9150612820826127b9565b604082019050919050565b6000602082019050818103600083015261284481612808565b9050919050565b7f4552433732313a207472616e7366657220746f20746865207a65726f2061646460008201527f7265737300000000000000000000000000000000000000000000000000000000602082015250565b60006128a7602483611d07565b91506128b28261284b565b604082019050919050565b600060208201905081810360008301526128d68161289a565b9050919050565b7f4e487b7100000000000000000000000000000000000000000000000000000000600052601160045260246000fd5b600061291782611db7565b915061292283611db7565b925082821015612935576129346128dd565b5b828203905092915050565b600061294b82611db7565b915061295683611db7565b9250827fffffffffffffffffffffffffffffffffffffffffffffffffffffffffffffffff0382111561298b5761298a6128dd565b5b828201905092915050565b7f4f776e61626c653a2063616c6c6572206973206e6f7420746865206f776e6572600082015250565b60006129cc602083611d07565b91506129d782612996565b602082019050919050565b600060208201905081810360008301526129fb816129bf565b9050919050565b7f4552433732313a206d696e7420746f20746865207a65726f2061646472657373600082015250565b6000612a38602083611d07565b9150612a4382612a02565b602082019050919050565b60006020820190508181036000830152612a6781612a2b565b9050919050565b7f4552433732313a20746f6b656e20616c7265616479206d696e74656400000000600082015250565b6000612aa4601c83611d07565b9150612aaf82612a6e565b602082019050919050565b60006020820190508181036000830152612ad381612a97565b9050919050565b7f45524337323155524953746f726167653a2055524920736574206f66206e6f6e60008201527f6578697374656e7420746f6b656e000000000000000000000000000000000000602082015250565b6000612b36602e83611d07565b9150612b4182612ada565b604082019050919050565b60006020820190508181036000830152612b6581612b29565b9050919050565b7f4552433732313a20617070726f766520746f2063616c6c657200000000000000600082015250565b6000612ba2601983611d07565b9150612bad82612b6c565b602082019050919050565b60006020820190508181036000830152612bd181612b95565b9050919050565b7f4552433732313a207472616e7366657220746f206e6f6e20455243373231526560008201527f63656976657220696d706c656d656e7465720000000000000000000000000000602082015250565b6000612c34603283611d07565b9150612c3f82612bd8565b604082019050919050565b60006020820190508181036000830152612c6381612c27565b9050919050565b600082825260208201905092915050565b6000612c868261275b565b612c908185612c6a565b9350612ca0818560208601611d18565b612ca981611d4b565b840191505092915050565b6000608082019050612cc96000830187611e4c565b612cd66020830186611e4c565b612ce36040830185611f62565b8181036060830152612cf58184612c7b565b905095945050505050565b600081519050612d0f81611c6d565b92915050565b600060208284031215612d2b57612d2a611c37565b5b6000612d3984828501612d00565b91505092915050565b6000612d4d82611db7565b91507fffffffffffffffffffffffffffffffffffffffffffffffffffffffffffffffff8203612d7f57612d7e6128dd565b5b600182019050919050565b7f4e487b7100000000000000000000000000000000000000000000000000000000600052601260045260246000fd5b6000612dc482611db7565b9150612dcf83611db7565b925082612ddf57612dde612d8a565b5b828204905092915050565b6000612df582611db7565b9150612e0083611db7565b925082612e1057612e0f612d8a565b5b828206905092915050565b7f4e487b7100000000000000000000000000000000000000000000000000000000600052603260045260246000fdfe697066733a2f2f516d56563569346e396a4254384c3357356a4c6656383938777a416e326168376d4744466d704b485337557a534aa2646970667358221220f91ef46f5e8c4c7d908bf64949f94e6214a75a6fc033d1c686fd7eb9341ad5ac64736f6c634300080d0033",
  "linkReferences": {},
  "deployedLinkReferences": {}
}